:100000000C9434000C9451000C9451000C94510049
:100010000C9496000C9451000C9451000C945100D7
:100020000C9451000C9451000C9451000C9451000C
:100030000C9451000C9451000C9451000C945100FC
:100040000C9451000C9451000C9451000C945100EC
:100050000C9451000C9451000C9451000C945100DC
:100060000C9451000C94510011241FBECFEFD8E026
:10007000DEBFCDBF11E0A0E0B1E0E0EEF1E002C0F4
:1000800005900D92A031B107D9F721E0A0E1B1E0D0
:1000900001C01D92A231B207E1F70E9491000C94B9
:1000A000EE000C940000CF93DF93C5E0D0E00DC0CC
:1000B0008C2F0E94CA002FEF83ED90E321508040E7
:1000C0009040E1F700C000002197DD238CF78FEF0F
:1000D0008BB9DF91CF910895F8948EED84B981E2C8
:1000E00085B98FEF8AB98BB98FE087B980EF88B96E
:1000F000ECE6F0E0808180678083E8E6F0E08081D4
:1001000082608083808181608083ABE6B0E08C91E7
:1001100081628C938081816080831092C100789489
:1001200008950E946C008FEF8BB9FDCF1F920F9244
:100130000FB60F9211242F933F934F935F936F93BA
:100140007F938F939F93AF93BF93EF93FF933499D4
:1001500010C08091100190911101019690931101AE
:100160008093100102971CF00E94530002C00E946D
:100170005300FF91EF91BF91AF919F918F917F912C
:100180006F915F914F913F912F910F900FBE0F9004
:100190001F901895CF93DF93CDB7DEB760970FB65A
:1001A000F894DEBF0FBECDBF90E1E0E0F1E0DE01EC
:1001B000119601900D929A95E1F7E1E0F0E0EC0FD5
:1001C000FD1FE80FF11D80818BB960960FB6F89482
:1001D000DEBF0FBECDBFDF91CF910895F894FFCF62
:1001E0004079243019120278001008034621060EC7
:00000001FF
