S00C00004C4142312E7372656318
S11300000C9434000C9451000C9451000C9459013C
S11300100C94F9000C9451000C9451000C94510070
S11300200C9451000C9451000C9451000C94510008
S11300300C9451000C9451000C9451000C945100F8
S11300400C9451000C9451000C9451000C945100E8
S11300500C9451000C9451000C9451000C945100D8
S11300600C9451000C94510011241FBECFEFD8E022
S1130070DEBFCDBF11E0A0E0B1E0E6EAF3E002C0EC
S113008005900D92A031B107D9F721E0A0E1B1E0CC
S113009001C01D92AA31B207E1F70E94D1000C946D
S11300A0D1010C940000CF93DF93C5E0D0E00DC0E4
S11300B08C2F0E94AD012FEF83ED90E321508040FF
S11300C09040E1F700C000002197DD238CF78FEF0B
S11300D08BB981E090E0909311018093100110920C
S11300E01501109214011092130110921201109232
S11300F019011092180185B1817E85B988B1807F7C
S113010088B9DF91CF910895F8948EED84B981E296
S113011085B98FEF8AB98BB98FE087B980EF88B939
S1130120ECE6F0E0808180678083E8E6F0E080819F
S113013082608083808181608083ABE6B0E08C91B3
S113014081628C938081816080831092C100789455
S113015008958091180190911901892B41F08FE342
S11301609CE90197F1F700C000008FE08BB9809102
S11301701801909119018130910519F0029749F005
S1130180089581E00E94AD011092170110921601AA
S1130190089582E00E94AD01109217011092160199
S11301A008950E9484000E94A900FDCFFB01642FE2
S11301B070E02FE030E002C0220F331F4A95E2F7CF
S11301C090812095292320839FEF980F943080F409
S11301D0408190E00197860F971F21E030E0B9013C
S11301E002C0660F771F8A95E2F7CB01842B8083C8
S11301F008951F920F920FB60F9211242F933F93DD
S11302004F935F936F937F938F939F93AF93BF931A
S1130210EF93FF93349910C08091160190911701C8
S11302200196909317018093160102971CF00E9487
S1130230530002C00E94530035992AC080911001D6
S113024090911101892B21F180911801909119014C
S11302500297F1F080911401909115010196909309
S1130260150180931401059764F084E090E0909365
S113027015018093140181E090E09093190180931B
S1130280180141E065E270E0809114010E94D600FB
S1130290FF91EF91BF91AF919F918F917F916F915A
S11302A05F914F913F912F910F900FBE0F901F9030
S11302B018951F920F920FB60F9211242F933F930C
S11302C04F935F936F937F938F939F93AF93BF935A
S11302D0EF93FF93189930C0809110019091110110
S11302E0892B51F18FE19EE40197F1F700C00000E2
S11302F080911801909119010197F1F080911201F8
S11303009091130101969093130180931201059724
S113031064F084E090E0909313018093120182E0F2
S113032090E0909319018093180140E068E270E036
S1130330809112010E94D600FF91EF91BF91AF917D
S11303409F918F917F916F915F914F913F912F91E9
S11303500F900FBE0F901F901895CF93DF93CDB7DA
S1130360DEB760970FB6F894DEBF0FBECDBF90E145
S1130370E0E0F1E0DE01119601900D929A95E1F72B
S1130380E1E0F0E0EC0FFD1FE80FF11D80818BB977
S113039060960FB6F894DEBF0FBECDBFDF91CF914C
S10903A00895F894FFCF5C
S11303A64079243019120278001008034621060EFB
S9030000FC
